{
  "contractName": "VotingMaster",
  "abi": [
    {
      "anonymous": false,
      "inputs": [
        {
          "indexed": true,
          "internalType": "uint256",
          "name": "proposalId",
          "type": "uint256"
        },
        {
          "indexed": false,
          "internalType": "string",
          "name": "name",
          "type": "string"
        },
        {
          "indexed": false,
          "internalType": "string",
          "name": "description",
          "type": "string"
        },
        {
          "indexed": false,
          "internalType": "uint256",
          "name": "endTime",
          "type": "uint256"
        }
      ],
      "name": "ProposalCreated",
      "type": "event"
    },
    {
      "inputs": [
        {
          "internalType": "address",
          "name": "",
          "type": "address"
        }
      ],
      "name": "delegatees",
      "outputs": [
        {
          "internalType": "address",
          "name": "",
          "type": "address"
        }
      ],
      "stateMutability": "view",
      "type": "function",
      "constant": true
    },
    {
      "inputs": [
        {
          "internalType": "address",
          "name": "",
          "type": "address"
        }
      ],
      "name": "delegators",
      "outputs": [
        {
          "internalType": "address",
          "name": "",
          "type": "address"
        }
      ],
      "stateMutability": "view",
      "type": "function",
      "constant": true
    },
    {
      "inputs": [
        {
          "internalType": "address",
          "name": "",
          "type": "address"
        },
        {
          "internalType": "uint256",
          "name": "",
          "type": "uint256"
        }
      ],
      "name": "hasVoted",
      "outputs": [
        {
          "internalType": "bool",
          "name": "",
          "type": "bool"
        }
      ],
      "stateMutability": "view",
      "type": "function",
      "constant": true
    },
    {
      "inputs": [
        {
          "internalType": "uint256",
          "name": "",
          "type": "uint256"
        }
      ],
      "name": "proposals",
      "outputs": [
        {
          "internalType": "string",
          "name": "name",
          "type": "string"
        },
        {
          "internalType": "string",
          "name": "description",
          "type": "string"
        },
        {
          "internalType": "uint256",
          "name": "noOfUpVotes",
          "type": "uint256"
        },
        {
          "internalType": "uint256",
          "name": "noOfDownVotes",
          "type": "uint256"
        },
        {
          "internalType": "uint256",
          "name": "endTime",
          "type": "uint256"
        }
      ],
      "stateMutability": "view",
      "type": "function",
      "constant": true
    },
    {
      "inputs": [],
      "name": "proposalsCount",
      "outputs": [
        {
          "internalType": "uint256",
          "name": "",
          "type": "uint256"
        }
      ],
      "stateMutability": "view",
      "type": "function",
      "constant": true
    },
    {
      "inputs": [
        {
          "internalType": "string",
          "name": "_name",
          "type": "string"
        },
        {
          "internalType": "string",
          "name": "_description",
          "type": "string"
        },
        {
          "internalType": "uint256",
          "name": "_endTime",
          "type": "uint256"
        }
      ],
      "name": "createProposal",
      "outputs": [
        {
          "internalType": "uint256",
          "name": "_proposalId",
          "type": "uint256"
        }
      ],
      "stateMutability": "nonpayable",
      "type": "function"
    },
    {
      "inputs": [
        {
          "internalType": "uint256",
          "name": "_proposalId",
          "type": "uint256"
        }
      ],
      "name": "upVote",
      "outputs": [
        {
          "internalType": "bool",
          "name": "_isSuccess",
          "type": "bool"
        }
      ],
      "stateMutability": "nonpayable",
      "type": "function"
    },
    {
      "inputs": [
        {
          "internalType": "uint256",
          "name": "_proposalId",
          "type": "uint256"
        }
      ],
      "name": "downVote",
      "outputs": [
        {
          "internalType": "bool",
          "name": "_isSuccess",
          "type": "bool"
        }
      ],
      "stateMutability": "nonpayable",
      "type": "function"
    },
    {
      "inputs": [
        {
          "internalType": "uint256",
          "name": "_proposalId",
          "type": "uint256"
        }
      ],
      "name": "upVoteByDelegate",
      "outputs": [
        {
          "internalType": "bool",
          "name": "_isSuccess",
          "type": "bool"
        }
      ],
      "stateMutability": "nonpayable",
      "type": "function"
    },
    {
      "inputs": [
        {
          "internalType": "uint256",
          "name": "_proposalId",
          "type": "uint256"
        }
      ],
      "name": "downVoteByDelegate",
      "outputs": [
        {
          "internalType": "bool",
          "name": "_isSuccess",
          "type": "bool"
        }
      ],
      "stateMutability": "nonpayable",
      "type": "function"
    },
    {
      "inputs": [
        {
          "internalType": "address",
          "name": "_delegatee",
          "type": "address"
        }
      ],
      "name": "delegateVote",
      "outputs": [
        {
          "internalType": "bool",
          "name": "_isSuccess",
          "type": "bool"
        }
      ],
      "stateMutability": "nonpayable",
      "type": "function"
    },
    {
      "inputs": [
        {
          "internalType": "uint256",
          "name": "_proposalId",
          "type": "uint256"
        }
      ],
      "name": "viewResults",
      "outputs": [
        {
          "internalType": "bool",
          "name": "_isPassed",
          "type": "bool"
        }
      ],
      "stateMutability": "payable",
      "type": "function",
      "payable": true
    }
  ],
  "bytecode": "0x608060405234801561001057600080fd5b50612405806100206000396000f3fe6080604052600436106100a75760003560e01c8063425458251161006457806342545825146101ff57806365ebb4681461023c5780638d23fc6114610279578063b31e1d4d146102b6578063ea784507146102f3578063ec859db514610330576100a7565b8063013cf08b146100ac5780630a9f46ad146100ed5780630ce0ebf41461011857806311ec8b2b146101555780631ae9392d146101925780632bd87d49146101cf575b600080fd5b3480156100b857600080fd5b506100d360048036038101906100ce919061160c565b61036d565b6040516100e49594939291906116d8565b60405180910390f35b3480156100f957600080fd5b506101026104b3565b60405161010f9190611739565b60405180910390f35b34801561012457600080fd5b5061013f600480360381019061013a9190611889565b6104b9565b60405161014c9190611739565b60405180910390f35b34801561016157600080fd5b5061017c60048036038101906101779190611972565b610602565b60405161018991906119ae565b60405180910390f35b34801561019e57600080fd5b506101b960048036038101906101b4919061160c565b610635565b6040516101c691906119e4565b60405180910390f35b6101e960048036038101906101e4919061160c565b610881565b6040516101f691906119e4565b60405180910390f35b34801561020b57600080fd5b50610226600480360381019061022191906119ff565b610939565b60405161023391906119e4565b60405180910390f35b34801561024857600080fd5b50610263600480360381019061025e919061160c565b610968565b60405161027091906119e4565b60405180910390f35b34801561028557600080fd5b506102a0600480360381019061029b9190611972565b610ce7565b6040516102ad91906119ae565b60405180910390f35b3480156102c257600080fd5b506102dd60048036038101906102d89190611972565b610d1a565b6040516102ea91906119e4565b60405180910390f35b3480156102ff57600080fd5b5061031a6004803603810190610315919061160c565b610fcb565b60405161032791906119e4565b60405180910390f35b34801561033c57600080fd5b506103576004803603810190610352919061160c565b61134a565b60405161036491906119e4565b60405180910390f35b600160205280600052604060002060009150905080600001805461039090611a6e565b80601f01602080910402602001604051908101604052809291908181526020018280546103bc90611a6e565b80156104095780601f106103de57610100808354040283529160200191610409565b820191906000526020600020905b8154815290600101906020018083116103ec57829003601f168201915b50505050509080600101805461041e90611a6e565b80601f016020809104026020016040519081016040528092919081815260200182805461044a90611a6e565b80156104975780601f1061046c57610100808354040283529160200191610497565b820191906000526020600020905b81548152906001019060200180831161047a57829003601f168201915b5050505050908060020154908060030154908060040154905085565b60025481565b60004282116104fd576040517f08c379a00000000000000000000000000000000000000000000000000000000081526004016104f490611aeb565b60405180910390fd5b60025490508360016000600254815260200190815260200160002060000190816105279190611cb7565b5082600160006002548152602001908152602001600020600101908161054d9190611cb7565b508160016000600254815260200190815260200160002060040181905550600060016000600254815260200190815260200160002060020181905550600060016000600254815260200190815260200160002060030181905550807f3f86606f711a448daf3ec6c75d04db9515b24b20b64a68406f971eb5a4e161878585856040516105db93929190611d89565b60405180910390a2600260008154809291906105f690611dfd565b91905055509392505050565b60036020528060005260406000206000915054906101000a900473ffffffffffffffffffffffffffffffffffffffff1681565b600060025482111561067c576040517f08c379a000000000000000000000000000000000000000000000000000000000815260040161067390611e91565b60405180910390fd5b6000600160008481526020019081526020016000209050428160040154116106d9576040517f08c379a00000000000000000000000000000000000000000000000000000000081526004016106d090611efd565b60405180910390fd5b6000803373ffffffffffffffffffffffffffffffffffffffff1673ffffffffffffffffffffffffffffffffffffffff168152602001908152602001600020600084815260200190815260200160002060009054906101000a900460ff1615610776576040517f08c379a000000000000000000000000000000000000000000000000000000000815260040161076d90611f8f565b60405180910390fd5b60006107aa670de0b6b3a76400003373ffffffffffffffffffffffffffffffffffffffff163161159690919063ffffffff16565b9050600081116107ef576040517f08c379a00000000000000000000000000000000000000000000000000000000081526004016107e690612021565b60405180910390fd5b6108068183600301546115ac90919063ffffffff16565b826003018190555060016000803373ffffffffffffffffffffffffffffffffffffffff1673ffffffffffffffffffffffffffffffffffffffff168152602001908152602001600020600086815260200190815260200160002060006101000a81548160ff021916908315150217905550600192505050919050565b60006002548211156108c8576040517f08c379a00000000000000000000000000000000000000000000000000000000081526004016108bf90611e91565b60405180910390fd5b600060016000848152602001908152602001600020905042816004015410610925576040517f08c379a000000000000000000000000000000000000000000000000000000000815260040161091c9061208d565b60405180910390fd5b806003015481600201541015915050919050565b60006020528160005260406000206020528060005260406000206000915091509054906101000a900460ff1681565b60006002548211156109af576040517f08c379a00000000000000000000000000000000000000000000000000000000081526004016109a690611e91565b60405180910390fd5b600073ffffffffffffffffffffffffffffffffffffffff16600460003373ffffffffffffffffffffffffffffffffffffffff1673ffffffffffffffffffffffffffffffffffffffff16815260200190815260200160002060009054906101000a900473ffffffffffffffffffffffffffffffffffffffff1673ffffffffffffffffffffffffffffffffffffffff1603610a7d576040517f08c379a0000000000000000000000000000000000000000000000000000000008152600401610a749061211f565b60405180910390fd5b600060016000848152602001908152602001600020905042816004015411610ada576040517f08c379a0000000000000000000000000000000000000000000000000000000008152600401610ad190611efd565b60405180910390fd5b6000600460003373ffffffffffffffffffffffffffffffffffffffff1673ffffffffffffffffffffffffffffffffffffffff16815260200190815260200160002060009054906101000a900473ffffffffffffffffffffffffffffffffffffffff1690506000808273ffffffffffffffffffffffffffffffffffffffff1673ffffffffffffffffffffffffffffffffffffffff168152602001908152602001600020600085815260200190815260200160002060009054906101000a900460ff1615610bdb576040517f08c379a0000000000000000000000000000000000000000000000000000000008152600401610bd2906121b1565b60405180910390fd5b6000610c0f670de0b6b3a76400003373ffffffffffffffffffffffffffffffffffffffff163161159690919063ffffffff16565b905060008111610c54576040517f08c379a0000000000000000000000000000000000000000000000000000000008152600401610c4b90612021565b60405180910390fd5b610c6b8184600301546115ac90919063ffffffff16565b836003018190555060016000808473ffffffffffffffffffffffffffffffffffffffff1673ffffffffffffffffffffffffffffffffffffffff168152602001908152602001600020600087815260200190815260200160002060006101000a81548160ff02191690831515021790555060019350505050919050565b60046020528060005260406000206000915054906101000a900473ffffffffffffffffffffffffffffffffffffffff1681565b60008073ffffffffffffffffffffffffffffffffffffffff16600460008473ffffffffffffffffffffffffffffffffffffffff1673ffffffffffffffffffffffffffffffffffffffff16815260200190815260200160002060009054906101000a900473ffffffffffffffffffffffffffffffffffffffff1673ffffffffffffffffffffffffffffffffffffffff1614610de9576040517f08c379a0000000000000000000000000000000000000000000000000000000008152600401610de090612243565b60405180910390fd5b8173ffffffffffffffffffffffffffffffffffffffff163373ffffffffffffffffffffffffffffffffffffffff1603610e57576040517f08c379a0000000000000000000000000000000000000000000000000000000008152600401610e4e906122af565b60405180910390fd5b600073ffffffffffffffffffffffffffffffffffffffff168273ffffffffffffffffffffffffffffffffffffffff1603610ec6576040517f08c379a0000000000000000000000000000000000000000000000000000000008152600401610ebd9061231b565b60405180910390fd5b81600360003373ffffffffffffffffffffffffffffffffffffffff1673ffffffffffffffffffffffffffffffffffffffff16815260200190815260200160002060006101000a81548173ffffffffffffffffffffffffffffffffffffffff021916908373ffffffffffffffffffffffffffffffffffffffff16021790555033600460008473ffffffffffffffffffffffffffffffffffffffff1673ffffffffffffffffffffffffffffffffffffffff16815260200190815260200160002060006101000a81548173ffffffffffffffffffffffffffffffffffffffff021916908373ffffffffffffffffffffffffffffffffffffffff16021790555060019050919050565b6000600254821115611012576040517f08c379a000000000000000000000000000000000000000000000000000000000815260040161100990611e91565b60405180910390fd5b600073ffffffffffffffffffffffffffffffffffffffff16600460003373ffffffffffffffffffffffffffffffffffffffff1673ffffffffffffffffffffffffffffffffffffffff16815260200190815260200160002060009054906101000a900473ffffffffffffffffffffffffffffffffffffffff1673ffffffffffffffffffffffffffffffffffffffff16036110e0576040517f08c379a00000000000000000000000000000000000000000000000000000000081526004016110d79061211f565b60405180910390fd5b60006001600084815260200190815260200160002090504281600401541161113d576040517f08c379a000000000000000000000000000000000000000000000000000000000815260040161113490611efd565b60405180910390fd5b6000600460003373ffffffffffffffffffffffffffffffffffffffff1673ffffffffffffffffffffffffffffffffffffffff16815260200190815260200160002060009054906101000a900473ffffffffffffffffffffffffffffffffffffffff1690506000808273ffffffffffffffffffffffffffffffffffffffff1673ffffffffffffffffffffffffffffffffffffffff168152602001908152602001600020600085815260200190815260200160002060009054906101000a900460ff161561123e576040517f08c379a0000000000000000000000000000000000000000000000000000000008152600401611235906121b1565b60405180910390fd5b6000611272670de0b6b3a76400003373ffffffffffffffffffffffffffffffffffffffff163161159690919063ffffffff16565b9050600081116112b7576040517f08c379a00000000000000000000000000000000000000000000000000000000081526004016112ae90612021565b60405180910390fd5b6112ce8184600201546115ac90919063ffffffff16565b836002018190555060016000808473ffffffffffffffffffffffffffffffffffffffff1673ffffffffffffffffffffffffffffffffffffffff168152602001908152602001600020600087815260200190815260200160002060006101000a81548160ff02191690831515021790555060019350505050919050565b6000600254821115611391576040517f08c379a000000000000000000000000000000000000000000000000000000000815260040161138890611e91565b60405180910390fd5b6000600160008481526020019081526020016000209050428160040154116113ee576040517f08c379a00000000000000000000000000000000000000000000000000000000081526004016113e590611efd565b60405180910390fd5b6000803373ffffffffffffffffffffffffffffffffffffffff1673ffffffffffffffffffffffffffffffffffffffff168152602001908152602001600020600084815260200190815260200160002060009054906101000a900460ff161561148b576040517f08c379a000000000000000000000000000000000000000000000000000000000815260040161148290611f8f565b60405180910390fd5b60006114bf670de0b6b3a76400003373ffffffffffffffffffffffffffffffffffffffff163161159690919063ffffffff16565b905060008111611504576040517f08c379a00000000000000000000000000000000000000000000000000000000081526004016114fb90612021565b60405180910390fd5b61151b8183600201546115ac90919063ffffffff16565b826002018190555060016000803373ffffffffffffffffffffffffffffffffffffffff1673ffffffffffffffffffffffffffffffffffffffff168152602001908152602001600020600086815260200190815260200160002060006101000a81548160ff021916908315150217905550600192505050919050565b600081836115a4919061236a565b905092915050565b600081836115ba919061239b565b905092915050565b6000604051905090565b600080fd5b600080fd5b6000819050919050565b6115e9816115d6565b81146115f457600080fd5b50565b600081359050611606816115e0565b92915050565b600060208284031215611622576116216115cc565b5b6000611630848285016115f7565b91505092915050565b600081519050919050565b600082825260208201905092915050565b60005b83811015611673578082015181840152602081019050611658565b60008484015250505050565b6000601f19601f8301169050919050565b600061169b82611639565b6116a58185611644565b93506116b5818560208601611655565b6116be8161167f565b840191505092915050565b6116d2816115d6565b82525050565b600060a08201905081810360008301526116f28188611690565b905081810360208301526117068187611690565b905061171560408301866116c9565b61172260608301856116c9565b61172f60808301846116c9565b9695505050505050565b600060208201905061174e60008301846116c9565b92915050565b600080fd5b600080fd5b7f4e487b7100000000000000000000000000000000000000000000000000000000600052604160045260246000fd5b6117968261167f565b810181811067ffffffffffffffff821117156117b5576117b461175e565b5b80604052505050565b60006117c86115c2565b90506117d4828261178d565b919050565b600067ffffffffffffffff8211156117f4576117f361175e565b5b6117fd8261167f565b9050602081019050919050565b82818337600083830152505050565b600061182c611827846117d9565b6117be565b90508281526020810184848401111561184857611847611759565b5b61185384828561180a565b509392505050565b600082601f8301126118705761186f611754565b5b8135611880848260208601611819565b91505092915050565b6000806000606084860312156118a2576118a16115cc565b5b600084013567ffffffffffffffff8111156118c0576118bf6115d1565b5b6118cc8682870161185b565b935050602084013567ffffffffffffffff8111156118ed576118ec6115d1565b5b6118f98682870161185b565b925050604061190a868287016115f7565b9150509250925092565b600073ffffffffffffffffffffffffffffffffffffffff82169050919050565b600061193f82611914565b9050919050565b61194f81611934565b811461195a57600080fd5b50565b60008135905061196c81611946565b92915050565b600060208284031215611988576119876115cc565b5b60006119968482850161195d565b91505092915050565b6119a881611934565b82525050565b60006020820190506119c3600083018461199f565b92915050565b60008115159050919050565b6119de816119c9565b82525050565b60006020820190506119f960008301846119d5565b92915050565b60008060408385031215611a1657611a156115cc565b5b6000611a248582860161195d565b9250506020611a35858286016115f7565b9150509250929050565b7f4e487b7100000000000000000000000000000000000000000000000000000000600052602260045260246000fd5b60006002820490506001821680611a8657607f821691505b602082108103611a9957611a98611a3f565b5b50919050565b7f456e642074696d652073686f756c6420626520696e2066757475726521000000600082015250565b6000611ad5601d83611644565b9150611ae082611a9f565b602082019050919050565b60006020820190508181036000830152611b0481611ac8565b9050919050565b60008190508160005260206000209050919050565b60006020601f8301049050919050565b600082821b905092915050565b600060088302611b6d7fffffffffffffffffffffffffffffffffffffffffffffffffffffffffffffffff82611b30565b611b778683611b30565b95508019841693508086168417925050509392505050565b6000819050919050565b6000611bb4611baf611baa846115d6565b611b8f565b6115d6565b9050919050565b6000819050919050565b611bce83611b99565b611be2611bda82611bbb565b848454611b3d565b825550505050565b600090565b611bf7611bea565b611c02818484611bc5565b505050565b5b81811015611c2657611c1b600082611bef565b600181019050611c08565b5050565b601f821115611c6b57611c3c81611b0b565b611c4584611b20565b81016020851015611c54578190505b611c68611c6085611b20565b830182611c07565b50505b505050565b600082821c905092915050565b6000611c8e60001984600802611c70565b1980831691505092915050565b6000611ca78383611c7d565b9150826002028217905092915050565b611cc082611639565b67ffffffffffffffff811115611cd957611cd861175e565b5b611ce38254611a6e565b611cee828285611c2a565b600060209050601f831160018114611d215760008415611d0f578287015190505b611d198582611c9b565b865550611d81565b601f198416611d2f86611b0b565b60005b82811015611d5757848901518255600182019150602085019450602081019050611d32565b86831015611d745784890151611d70601f891682611c7d565b8355505b6001600288020188555050505b505050505050565b60006060820190508181036000830152611da38186611690565b90508181036020830152611db78185611690565b9050611dc660408301846116c9565b949350505050565b7f4e487b7100000000000000000000000000000000000000000000000000000000600052601160045260246000fd5b6000611e08826115d6565b91507fffffffffffffffffffffffffffffffffffffffffffffffffffffffffffffffff8203611e3a57611e39611dce565b5b600182019050919050565b7f496e76616c69642070726f706f73616c20494421000000000000000000000000600082015250565b6000611e7b601483611644565b9150611e8682611e45565b602082019050919050565b60006020820190508181036000830152611eaa81611e6e565b9050919050565b7f50726f706f73616c20766f74696e672068617320656e64656421000000000000600082015250565b6000611ee7601a83611644565b9150611ef282611eb1565b602082019050919050565b60006020820190508181036000830152611f1681611eda565b9050919050565b7f596f75206861766520616c726561647920766f746564206f6e2074686520707260008201527f6f706f73616c2100000000000000000000000000000000000000000000000000602082015250565b6000611f79602783611644565b9150611f8482611f1d565b604082019050919050565b60006020820190508181036000830152611fa881611f6c565b9050919050565b7f596f75206e656564203e3d312045544820696e20796f75722077616c6c65742060008201527f746f20766f746521000000000000000000000000000000000000000000000000602082015250565b600061200b602883611644565b915061201682611faf565b604082019050919050565b6000602082019050818103600083015261203a81611ffe565b9050919050565b7f50726f706f73616c20766f74696e67206973206f6e676f696e67210000000000600082015250565b6000612077601b83611644565b915061208282612041565b602082019050919050565b600060208201905081810360008301526120a68161206a565b9050919050565b7f596f7520617265206e6f742064656c65676174656420627920616e792075736560008201527f7221000000000000000000000000000000000000000000000000000000000000602082015250565b6000612109602283611644565b9150612114826120ad565b604082019050919050565b60006020820190508181036000830152612138816120fc565b9050919050565b7f5468652064656c656761746f722068617320616c726561647920766f7465642060008201527f6f6e207468652070726f706f73616c2100000000000000000000000000000000602082015250565b600061219b603083611644565b91506121a68261213f565b604082019050919050565b600060208201905081810360008301526121ca8161218e565b9050919050565b7f5468652064656c65676174656520697320616c72656164792064656c6567617460008201527f656420627920736f6d6520757365722100000000000000000000000000000000602082015250565b600061222d603083611644565b9150612238826121d1565b604082019050919050565b6000602082019050818103600083015261225c81612220565b9050919050565b7f596f752063616e6e6f742064656c656761746520796f757273656c6621000000600082015250565b6000612299601d83611644565b91506122a482612263565b602082019050919050565b600060208201905081810360008301526122c88161228c565b9050919050565b7f496e76616c69642064656c656761746565206164647265737321000000000000600082015250565b6000612305601a83611644565b9150612310826122cf565b602082019050919050565b60006020820190508181036000830152612334816122f8565b9050919050565b7f4e487b7100000000000000000000000000000000000000000000000000000000600052601260045260246000fd5b6000612375826115d6565b9150612380836115d6565b9250826123905761238f61233b565b5b828204905092915050565b60006123a6826115d6565b91506123b1836115d6565b92508282019050808211156123c9576123c8611dce565b5b9291505056fea26469706673582212207463324097cc73b5181429244ea481bbf8f6878b272a3634b8a91bc000f0499d64736f6c63430008130033",
  "immutableReferences": {},
  "source": "// SPDX-License-Identifier: MIT\npragma solidity ^0.8.19;\n\nimport \"@openzeppelin/contracts/utils/math/SafeMath.sol\";\n\ncontract VotingMaster {\n    using SafeMath for uint256;\n\n    struct Proposal {\n        string name;\n        string description;\n        uint256 noOfUpVotes;\n        uint256 noOfDownVotes;\n        uint256 endTime;\n    }\n\n    mapping(address => mapping(uint256 => bool)) public hasVoted;\n    mapping(uint256 => Proposal) public proposals;\n    uint256 public proposalsCount;\n\n    mapping(address => address) public delegatees;\n    mapping(address => address) public delegators;\n\n    event ProposalCreated(uint256 indexed proposalId, string name, string description, uint256 endTime);\n\n    function createProposal(string memory _name, string memory _description, uint256 _endTime) public returns (uint256 _proposalId){\n        require(_endTime > block.timestamp, \"End time should be in future!\");\n\n        _proposalId = proposalsCount;\n\n        proposals[proposalsCount].name = _name;\n        proposals[proposalsCount].description = _description;\n        proposals[proposalsCount].endTime = _endTime;\n        proposals[proposalsCount].noOfUpVotes = 0; //default to 0 upVotes\n        proposals[proposalsCount].noOfDownVotes = 0; //default to 0 downVotes\n\n        emit ProposalCreated(_proposalId, _name, _description, _endTime);\n\n        proposalsCount++;\n    }\n\n    function upVote(uint256 _proposalId) public returns (bool _isSuccess){\n        require(_proposalId <= proposalsCount, \"Invalid proposal ID!\");\n\n        Proposal storage proposal = proposals[_proposalId];\n        require(proposal.endTime > block.timestamp, \"Proposal voting has ended!\");\n\n        require(!hasVoted[msg.sender][_proposalId], \"You have already voted on the proposal!\");\n\n        uint256 voteWeight = msg.sender.balance.div(1 ether);\n        require(voteWeight > 0, \"You need >=1 ETH in your wallet to vote!\");\n\n        proposal.noOfUpVotes = proposal.noOfUpVotes.add(voteWeight);\n        hasVoted[msg.sender][_proposalId] = true;\n\n        return true;\n    }\n\n    function downVote(uint256 _proposalId) public returns (bool _isSuccess){\n        require(_proposalId <= proposalsCount, \"Invalid proposal ID!\");\n\n        Proposal storage proposal = proposals[_proposalId];\n        require(proposal.endTime > block.timestamp, \"Proposal voting has ended!\");\n\n        require(!hasVoted[msg.sender][_proposalId], \"You have already voted on the proposal!\");\n\n        uint256 voteWeight = msg.sender.balance.div(1 ether);\n        require(voteWeight > 0, \"You need >=1 ETH in your wallet to vote!\");\n\n        proposal.noOfDownVotes = proposal.noOfDownVotes.add(voteWeight);\n        hasVoted[msg.sender][_proposalId] = true;\n\n        return true;\n    }\n\n    function upVoteByDelegate(uint256 _proposalId) public returns (bool _isSuccess) {\n        require(_proposalId <= proposalsCount, \"Invalid proposal ID!\");\n        require(delegators[msg.sender] != address(0), \"You are not delegated by any user!\");\n\n        Proposal storage proposal = proposals[_proposalId];\n        require(proposal.endTime > block.timestamp, \"Proposal voting has ended!\");\n\n        address delegator = delegators[msg.sender];\n        require(!hasVoted[delegator][_proposalId], \"The delegator has already voted on the proposal!\");\n\n        uint256 voteWeight = msg.sender.balance.div(1 ether);\n        require(voteWeight > 0, \"You need >=1 ETH in your wallet to vote!\");\n\n        proposal.noOfUpVotes = proposal.noOfUpVotes.add(voteWeight);\n        hasVoted[delegator][_proposalId] = true;\n\n        return true;\n    }\n\n    function downVoteByDelegate(uint256 _proposalId) public returns (bool _isSuccess) {\n        require(_proposalId <= proposalsCount, \"Invalid proposal ID!\");\n        require(delegators[msg.sender] != address(0), \"You are not delegated by any user!\");\n\n        Proposal storage proposal = proposals[_proposalId];\n        require(proposal.endTime > block.timestamp, \"Proposal voting has ended!\");\n\n        address delegator = delegators[msg.sender];\n        require(!hasVoted[delegator][_proposalId], \"The delegator has already voted on the proposal!\");\n\n        uint256 voteWeight = msg.sender.balance.div(1 ether);\n        require(voteWeight > 0 ether, \"You need >=1 ETH in your wallet to vote!\");\n\n        proposal.noOfDownVotes = proposal.noOfDownVotes.add(voteWeight);\n        hasVoted[delegator][_proposalId] = true;\n\n        return true;\n    }\n\n    function delegateVote(address _delegatee) public returns (bool _isSuccess){\n        require(delegators[_delegatee] == address(0), \"The delegatee is already delegated by some user!\");\n        require(msg.sender != _delegatee, \"You cannot delegate yourself!\");\n        require(_delegatee != address(0), \"Invalid delegatee address!\");\n\n        delegatees[msg.sender] = _delegatee;\n        delegators[_delegatee] = msg.sender;\n        return true;\n    }\n\n    function viewResults(uint256 _proposalId) public payable returns (bool _isPassed){\n        require(_proposalId <= proposalsCount, \"Invalid proposal ID!\");\n\n        Proposal storage proposal = proposals[_proposalId];\n        require(proposal.endTime < block.timestamp, \"Proposal voting is ongoing!\");\n\n        return (proposal.noOfUpVotes >= proposal.noOfDownVotes);\n    }\n}",
  "sourcePath": "/Users/apple/Desktop/voting/solidity/contracts/VotingMaster.sol",
  "compiler": {
    "name": "solc",
    "version": "0.8.19+commit.7dd6d404.Emscripten.clang"
  },
  "schemaVersion": "3.4.16",
  "updatedAt": "2024-08-18T10:52:16.589Z",
  "networkType": "ethereum",
  "devdoc": {
    "kind": "dev",
    "methods": {},
    "version": 1
  },
  "userdoc": {
    "kind": "user",
    "methods": {},
    "version": 1
  }
}