{
  "contractName": "VotingMaster",
  "abi": [
    {
      "anonymous": false,
      "inputs": [
        {
          "indexed": true,
          "internalType": "uint256",
          "name": "proposalId",
          "type": "uint256"
        },
        {
          "indexed": false,
          "internalType": "address",
          "name": "voter",
          "type": "address"
        },
        {
          "indexed": false,
          "internalType": "uint256",
          "name": "voteWeight",
          "type": "uint256"
        }
      ],
      "name": "DownVoted",
      "type": "event"
    },
    {
      "anonymous": false,
      "inputs": [
        {
          "indexed": true,
          "internalType": "uint256",
          "name": "proposalId",
          "type": "uint256"
        },
        {
          "indexed": false,
          "internalType": "address",
          "name": "delegator",
          "type": "address"
        },
        {
          "indexed": false,
          "internalType": "address",
          "name": "delegatee",
          "type": "address"
        },
        {
          "indexed": false,
          "internalType": "uint256",
          "name": "voteWeight",
          "type": "uint256"
        }
      ],
      "name": "DownVotedByDelegate",
      "type": "event"
    },
    {
      "anonymous": false,
      "inputs": [
        {
          "indexed": true,
          "internalType": "uint256",
          "name": "proposalId",
          "type": "uint256"
        },
        {
          "indexed": false,
          "internalType": "string",
          "name": "name",
          "type": "string"
        },
        {
          "indexed": false,
          "internalType": "string",
          "name": "description",
          "type": "string"
        },
        {
          "indexed": false,
          "internalType": "uint256",
          "name": "endTime",
          "type": "uint256"
        }
      ],
      "name": "ProposalCreated",
      "type": "event"
    },
    {
      "anonymous": false,
      "inputs": [
        {
          "indexed": true,
          "internalType": "uint256",
          "name": "proposalId",
          "type": "uint256"
        },
        {
          "indexed": false,
          "internalType": "address",
          "name": "voter",
          "type": "address"
        },
        {
          "indexed": false,
          "internalType": "uint256",
          "name": "voteWeight",
          "type": "uint256"
        }
      ],
      "name": "UpVoted",
      "type": "event"
    },
    {
      "anonymous": false,
      "inputs": [
        {
          "indexed": true,
          "internalType": "uint256",
          "name": "proposalId",
          "type": "uint256"
        },
        {
          "indexed": false,
          "internalType": "address",
          "name": "delegator",
          "type": "address"
        },
        {
          "indexed": false,
          "internalType": "address",
          "name": "delegatee",
          "type": "address"
        },
        {
          "indexed": false,
          "internalType": "uint256",
          "name": "voteWeight",
          "type": "uint256"
        }
      ],
      "name": "UpVotedByDelegate",
      "type": "event"
    },
    {
      "anonymous": false,
      "inputs": [
        {
          "indexed": false,
          "internalType": "address",
          "name": "delegator",
          "type": "address"
        },
        {
          "indexed": false,
          "internalType": "address",
          "name": "delegatee",
          "type": "address"
        }
      ],
      "name": "VoteDelegated",
      "type": "event"
    },
    {
      "inputs": [
        {
          "internalType": "address",
          "name": "",
          "type": "address"
        }
      ],
      "name": "delegatees",
      "outputs": [
        {
          "internalType": "address",
          "name": "",
          "type": "address"
        }
      ],
      "stateMutability": "view",
      "type": "function"
    },
    {
      "inputs": [
        {
          "internalType": "address",
          "name": "",
          "type": "address"
        }
      ],
      "name": "delegators",
      "outputs": [
        {
          "internalType": "address",
          "name": "",
          "type": "address"
        }
      ],
      "stateMutability": "view",
      "type": "function"
    },
    {
      "inputs": [
        {
          "internalType": "address",
          "name": "",
          "type": "address"
        },
        {
          "internalType": "uint256",
          "name": "",
          "type": "uint256"
        }
      ],
      "name": "hasVoted",
      "outputs": [
        {
          "internalType": "bool",
          "name": "",
          "type": "bool"
        }
      ],
      "stateMutability": "view",
      "type": "function"
    },
    {
      "inputs": [
        {
          "internalType": "uint256",
          "name": "",
          "type": "uint256"
        }
      ],
      "name": "proposals",
      "outputs": [
        {
          "internalType": "string",
          "name": "name",
          "type": "string"
        },
        {
          "internalType": "string",
          "name": "description",
          "type": "string"
        },
        {
          "internalType": "uint256",
          "name": "noOfUpVotes",
          "type": "uint256"
        },
        {
          "internalType": "uint256",
          "name": "noOfDownVotes",
          "type": "uint256"
        },
        {
          "internalType": "uint256",
          "name": "endTime",
          "type": "uint256"
        }
      ],
      "stateMutability": "view",
      "type": "function"
    },
    {
      "inputs": [],
      "name": "proposalsCount",
      "outputs": [
        {
          "internalType": "uint256",
          "name": "",
          "type": "uint256"
        }
      ],
      "stateMutability": "view",
      "type": "function"
    },
    {
      "inputs": [
        {
          "internalType": "string",
          "name": "_name",
          "type": "string"
        },
        {
          "internalType": "string",
          "name": "_description",
          "type": "string"
        },
        {
          "internalType": "uint256",
          "name": "_endTime",
          "type": "uint256"
        }
      ],
      "name": "createProposal",
      "outputs": [
        {
          "internalType": "uint256",
          "name": "_proposalId",
          "type": "uint256"
        }
      ],
      "stateMutability": "nonpayable",
      "type": "function"
    },
    {
      "inputs": [
        {
          "internalType": "uint256",
          "name": "_proposalId",
          "type": "uint256"
        }
      ],
      "name": "upVote",
      "outputs": [
        {
          "internalType": "bool",
          "name": "_isSuccess",
          "type": "bool"
        }
      ],
      "stateMutability": "nonpayable",
      "type": "function"
    },
    {
      "inputs": [
        {
          "internalType": "uint256",
          "name": "_proposalId",
          "type": "uint256"
        }
      ],
      "name": "downVote",
      "outputs": [
        {
          "internalType": "bool",
          "name": "_isSuccess",
          "type": "bool"
        }
      ],
      "stateMutability": "nonpayable",
      "type": "function"
    },
    {
      "inputs": [
        {
          "internalType": "uint256",
          "name": "_proposalId",
          "type": "uint256"
        }
      ],
      "name": "upVoteByDelegate",
      "outputs": [
        {
          "internalType": "bool",
          "name": "_isSuccess",
          "type": "bool"
        }
      ],
      "stateMutability": "nonpayable",
      "type": "function"
    },
    {
      "inputs": [
        {
          "internalType": "uint256",
          "name": "_proposalId",
          "type": "uint256"
        }
      ],
      "name": "downVoteByDelegate",
      "outputs": [
        {
          "internalType": "bool",
          "name": "_isSuccess",
          "type": "bool"
        }
      ],
      "stateMutability": "nonpayable",
      "type": "function"
    },
    {
      "inputs": [
        {
          "internalType": "address",
          "name": "_delegatee",
          "type": "address"
        }
      ],
      "name": "delegateVote",
      "outputs": [
        {
          "internalType": "bool",
          "name": "_isSuccess",
          "type": "bool"
        }
      ],
      "stateMutability": "nonpayable",
      "type": "function"
    },
    {
      "inputs": [
        {
          "internalType": "uint256",
          "name": "_proposalId",
          "type": "uint256"
        }
      ],
      "name": "viewResults",
      "outputs": [
        {
          "internalType": "bool",
          "name": "_isPassed",
          "type": "bool"
        }
      ],
      "stateMutability": "payable",
      "type": "function"
    }
  ],
  "bytecode": "0x608060405234801561001057600080fd5b506126ed806100206000396000f3fe6080604052600436106100a75760003560e01c8063425458251161006457806342545825146101ff57806365ebb4681461023c5780638d23fc6114610279578063b31e1d4d146102b6578063ea784507146102f3578063ec859db514610330576100a7565b8063013cf08b146100ac5780630a9f46ad146100ed5780630ce0ebf41461011857806311ec8b2b146101555780631ae9392d146101925780632bd87d49146101cf575b600080fd5b3480156100b857600080fd5b506100d360048036038101906100ce919061186b565b61036d565b6040516100e4959493929190611937565b60405180910390f35b3480156100f957600080fd5b506101026104b3565b60405161010f9190611998565b60405180910390f35b34801561012457600080fd5b5061013f600480360381019061013a9190611ae8565b6104b9565b60405161014c9190611998565b60405180910390f35b34801561016157600080fd5b5061017c60048036038101906101779190611bd1565b610602565b6040516101899190611c0d565b60405180910390f35b34801561019e57600080fd5b506101b960048036038101906101b4919061186b565b610635565b6040516101c69190611c43565b60405180910390f35b6101e960048036038101906101e4919061186b565b6108bb565b6040516101f69190611c43565b60405180910390f35b34801561020b57600080fd5b5061022660048036038101906102219190611c5e565b610973565b6040516102339190611c43565b60405180910390f35b34801561024857600080fd5b50610263600480360381019061025e919061186b565b6109a2565b6040516102709190611c43565b60405180910390f35b34801561028557600080fd5b506102a0600480360381019061029b9190611bd1565b610dfa565b6040516102ad9190611c0d565b60405180910390f35b3480156102c257600080fd5b506102dd60048036038101906102d89190611bd1565b610e2d565b6040516102ea9190611c43565b60405180910390f35b3480156102ff57600080fd5b5061031a6004803603810190610315919061186b565b611117565b6040516103279190611c43565b60405180910390f35b34801561033c57600080fd5b506103576004803603810190610352919061186b565b61156f565b6040516103649190611c43565b60405180910390f35b600160205280600052604060002060009150905080600001805461039090611ccd565b80601f01602080910402602001604051908101604052809291908181526020018280546103bc90611ccd565b80156104095780601f106103de57610100808354040283529160200191610409565b820191906000526020600020905b8154815290600101906020018083116103ec57829003601f168201915b50505050509080600101805461041e90611ccd565b80601f016020809104026020016040519081016040528092919081815260200182805461044a90611ccd565b80156104975780601f1061046c57610100808354040283529160200191610497565b820191906000526020600020905b81548152906001019060200180831161047a57829003601f168201915b5050505050908060020154908060030154908060040154905085565b60025481565b60004282116104fd576040517f08c379a00000000000000000000000000000000000000000000000000000000081526004016104f490611d4a565b60405180910390fd5b60025490508360016000600254815260200190815260200160002060000190816105279190611f16565b5082600160006002548152602001908152602001600020600101908161054d9190611f16565b508160016000600254815260200190815260200160002060040181905550600060016000600254815260200190815260200160002060020181905550600060016000600254815260200190815260200160002060030181905550600260008154809291906105ba90612017565b9190505550807f3f86606f711a448daf3ec6c75d04db9515b24b20b64a68406f971eb5a4e161878585856040516105f39392919061205f565b60405180910390a29392505050565b60036020528060005260406000206000915054906101000a900473ffffffffffffffffffffffffffffffffffffffff1681565b600060025482111561067c576040517f08c379a0000000000000000000000000000000000000000000000000000000008152600401610673906120f0565b60405180910390fd5b6000600160008481526020019081526020016000209050428160040154116106d9576040517f08c379a00000000000000000000000000000000000000000000000000000000081526004016106d09061215c565b60405180910390fd5b6000803373ffffffffffffffffffffffffffffffffffffffff1673ffffffffffffffffffffffffffffffffffffffff168152602001908152602001600020600084815260200190815260200160002060009054906101000a900460ff1615610776576040517f08c379a000000000000000000000000000000000000000000000000000000000815260040161076d906121ee565b60405180910390fd5b60006107aa670de0b6b3a76400003373ffffffffffffffffffffffffffffffffffffffff16316117f590919063ffffffff16565b9050600081116107ef576040517f08c379a00000000000000000000000000000000000000000000000000000000081526004016107e690612280565b60405180910390fd5b61080681836003015461180b90919063ffffffff16565b826003018190555060016000803373ffffffffffffffffffffffffffffffffffffffff1673ffffffffffffffffffffffffffffffffffffffff168152602001908152602001600020600086815260200190815260200160002060006101000a81548160ff021916908315150217905550837fc60012a07bf886acca27afd85a6503f04cf0aaa1d131ba8e340450db9b30cf2633836040516108a89291906122a0565b60405180910390a2600192505050919050565b6000600254821115610902576040517f08c379a00000000000000000000000000000000000000000000000000000000081526004016108f9906120f0565b60405180910390fd5b60006001600084815260200190815260200160002090504281600401541061095f576040517f08c379a000000000000000000000000000000000000000000000000000000000815260040161095690612315565b60405180910390fd5b806003015481600201541015915050919050565b60006020528160005260406000206020528060005260406000206000915091509054906101000a900460ff1681565b60006002548211156109e9576040517f08c379a00000000000000000000000000000000000000000000000000000000081526004016109e0906120f0565b60405180910390fd5b600073ffffffffffffffffffffffffffffffffffffffff16600460003373ffffffffffffffffffffffffffffffffffffffff1673ffffffffffffffffffffffffffffffffffffffff16815260200190815260200160002060009054906101000a900473ffffffffffffffffffffffffffffffffffffffff1673ffffffffffffffffffffffffffffffffffffffff1603610ab7576040517f08c379a0000000000000000000000000000000000000000000000000000000008152600401610aae906123a7565b60405180910390fd5b600060016000848152602001908152602001600020905042816004015411610b14576040517f08c379a0000000000000000000000000000000000000000000000000000000008152600401610b0b9061215c565b60405180910390fd5b6000600460003373ffffffffffffffffffffffffffffffffffffffff1673ffffffffffffffffffffffffffffffffffffffff16815260200190815260200160002060009054906101000a900473ffffffffffffffffffffffffffffffffffffffff1690506000803373ffffffffffffffffffffffffffffffffffffffff1673ffffffffffffffffffffffffffffffffffffffff168152602001908152602001600020600085815260200190815260200160002060009054906101000a900460ff1615610c15576040517f08c379a0000000000000000000000000000000000000000000000000000000008152600401610c0c906121ee565b60405180910390fd5b6000808273ffffffffffffffffffffffffffffffffffffffff1673ffffffffffffffffffffffffffffffffffffffff168152602001908152602001600020600085815260200190815260200160002060009054906101000a900460ff1615610cb2576040517f08c379a0000000000000000000000000000000000000000000000000000000008152600401610ca990612439565b60405180910390fd5b6000610ce6670de0b6b3a76400003373ffffffffffffffffffffffffffffffffffffffff16316117f590919063ffffffff16565b905060008111610d2b576040517f08c379a0000000000000000000000000000000000000000000000000000000008152600401610d2290612280565b60405180910390fd5b610d4281846003015461180b90919063ffffffff16565b836003018190555060016000808473ffffffffffffffffffffffffffffffffffffffff1673ffffffffffffffffffffffffffffffffffffffff168152602001908152602001600020600087815260200190815260200160002060006101000a81548160ff021916908315150217905550847f0fc3f8375f412686511219be009784e8da482a1a251986d7a5ce9e16c13cc6eb833384604051610de693929190612459565b60405180910390a260019350505050919050565b60046020528060005260406000206000915054906101000a900473ffffffffffffffffffffffffffffffffffffffff1681565b60008073ffffffffffffffffffffffffffffffffffffffff16600460008473ffffffffffffffffffffffffffffffffffffffff1673ffffffffffffffffffffffffffffffffffffffff16815260200190815260200160002060009054906101000a900473ffffffffffffffffffffffffffffffffffffffff1673ffffffffffffffffffffffffffffffffffffffff1614610efc576040517f08c379a0000000000000000000000000000000000000000000000000000000008152600401610ef390612502565b60405180910390fd5b8173ffffffffffffffffffffffffffffffffffffffff163373ffffffffffffffffffffffffffffffffffffffff1603610f6a576040517f08c379a0000000000000000000000000000000000000000000000000000000008152600401610f619061256e565b60405180910390fd5b600073ffffffffffffffffffffffffffffffffffffffff168273ffffffffffffffffffffffffffffffffffffffff1603610fd9576040517f08c379a0000000000000000000000000000000000000000000000000000000008152600401610fd0906125da565b60405180910390fd5b81600360003373ffffffffffffffffffffffffffffffffffffffff1673ffffffffffffffffffffffffffffffffffffffff16815260200190815260200160002060006101000a81548173ffffffffffffffffffffffffffffffffffffffff021916908373ffffffffffffffffffffffffffffffffffffffff16021790555033600460008473ffffffffffffffffffffffffffffffffffffffff1673ffffffffffffffffffffffffffffffffffffffff16815260200190815260200160002060006101000a81548173ffffffffffffffffffffffffffffffffffffffff021916908373ffffffffffffffffffffffffffffffffffffffff1602179055507fa0ff2fa6909fe4ddd94349fc9d8e2932f3dfe666216f3cc2aa3a72f5a03b655e33836040516111069291906125fa565b60405180910390a160019050919050565b600060025482111561115e576040517f08c379a0000000000000000000000000000000000000000000000000000000008152600401611155906120f0565b60405180910390fd5b600073ffffffffffffffffffffffffffffffffffffffff16600460003373ffffffffffffffffffffffffffffffffffffffff1673ffffffffffffffffffffffffffffffffffffffff16815260200190815260200160002060009054906101000a900473ffffffffffffffffffffffffffffffffffffffff1673ffffffffffffffffffffffffffffffffffffffff160361122c576040517f08c379a0000000000000000000000000000000000000000000000000000000008152600401611223906123a7565b60405180910390fd5b600060016000848152602001908152602001600020905042816004015411611289576040517f08c379a00000000000000000000000000000000000000000000000000000000081526004016112809061215c565b60405180910390fd5b6000600460003373ffffffffffffffffffffffffffffffffffffffff1673ffffffffffffffffffffffffffffffffffffffff16815260200190815260200160002060009054906101000a900473ffffffffffffffffffffffffffffffffffffffff1690506000803373ffffffffffffffffffffffffffffffffffffffff1673ffffffffffffffffffffffffffffffffffffffff168152602001908152602001600020600085815260200190815260200160002060009054906101000a900460ff161561138a576040517f08c379a0000000000000000000000000000000000000000000000000000000008152600401611381906121ee565b60405180910390fd5b6000808273ffffffffffffffffffffffffffffffffffffffff1673ffffffffffffffffffffffffffffffffffffffff168152602001908152602001600020600085815260200190815260200160002060009054906101000a900460ff1615611427576040517f08c379a000000000000000000000000000000000000000000000000000000000815260040161141e90612439565b60405180910390fd5b600061145b670de0b6b3a76400003373ffffffffffffffffffffffffffffffffffffffff16316117f590919063ffffffff16565b9050600081116114a0576040517f08c379a000000000000000000000000000000000000000000000000000000000815260040161149790612280565b60405180910390fd5b6114b781846002015461180b90919063ffffffff16565b836002018190555060016000808473ffffffffffffffffffffffffffffffffffffffff1673ffffffffffffffffffffffffffffffffffffffff168152602001908152602001600020600087815260200190815260200160002060006101000a81548160ff021916908315150217905550847fce43087c61a024c16ca0331b2cdcb33ab9cb4bef4b80d9e7c449e012b69f412383338460405161155b93929190612459565b60405180910390a260019350505050919050565b60006002548211156115b6576040517f08c379a00000000000000000000000000000000000000000000000000000000081526004016115ad906120f0565b60405180910390fd5b600060016000848152602001908152602001600020905042816004015411611613576040517f08c379a000000000000000000000000000000000000000000000000000000000815260040161160a9061215c565b60405180910390fd5b6000803373ffffffffffffffffffffffffffffffffffffffff1673ffffffffffffffffffffffffffffffffffffffff168152602001908152602001600020600084815260200190815260200160002060009054906101000a900460ff16156116b0576040517f08c379a00000000000000000000000000000000000000000000000000000000081526004016116a7906121ee565b60405180910390fd5b60006116e4670de0b6b3a76400003373ffffffffffffffffffffffffffffffffffffffff16316117f590919063ffffffff16565b905060008111611729576040517f08c379a000000000000000000000000000000000000000000000000000000000815260040161172090612280565b60405180910390fd5b61174081836002015461180b90919063ffffffff16565b826002018190555060016000803373ffffffffffffffffffffffffffffffffffffffff1673ffffffffffffffffffffffffffffffffffffffff168152602001908152602001600020600086815260200190815260200160002060006101000a81548160ff021916908315150217905550837f69935a612a2cc857ef91bd4d33cbe67655c4cc76763f14ecb1322a03ee3fd85733836040516117e29291906122a0565b60405180910390a2600192505050919050565b600081836118039190612652565b905092915050565b600081836118199190612683565b905092915050565b6000604051905090565b600080fd5b600080fd5b6000819050919050565b61184881611835565b811461185357600080fd5b50565b6000813590506118658161183f565b92915050565b6000602082840312156118815761188061182b565b5b600061188f84828501611856565b91505092915050565b600081519050919050565b600082825260208201905092915050565b60005b838110156118d25780820151818401526020810190506118b7565b60008484015250505050565b6000601f19601f8301169050919050565b60006118fa82611898565b61190481856118a3565b93506119148185602086016118b4565b61191d816118de565b840191505092915050565b61193181611835565b82525050565b600060a082019050818103600083015261195181886118ef565b9050818103602083015261196581876118ef565b90506119746040830186611928565b6119816060830185611928565b61198e6080830184611928565b9695505050505050565b60006020820190506119ad6000830184611928565b92915050565b600080fd5b600080fd5b7f4e487b7100000000000000000000000000000000000000000000000000000000600052604160045260246000fd5b6119f5826118de565b810181811067ffffffffffffffff82111715611a1457611a136119bd565b5b80604052505050565b6000611a27611821565b9050611a3382826119ec565b919050565b600067ffffffffffffffff821115611a5357611a526119bd565b5b611a5c826118de565b9050602081019050919050565b82818337600083830152505050565b6000611a8b611a8684611a38565b611a1d565b905082815260208101848484011115611aa757611aa66119b8565b5b611ab2848285611a69565b509392505050565b600082601f830112611acf57611ace6119b3565b5b8135611adf848260208601611a78565b91505092915050565b600080600060608486031215611b0157611b0061182b565b5b600084013567ffffffffffffffff811115611b1f57611b1e611830565b5b611b2b86828701611aba565b935050602084013567ffffffffffffffff811115611b4c57611b4b611830565b5b611b5886828701611aba565b9250506040611b6986828701611856565b9150509250925092565b600073ffffffffffffffffffffffffffffffffffffffff82169050919050565b6000611b9e82611b73565b9050919050565b611bae81611b93565b8114611bb957600080fd5b50565b600081359050611bcb81611ba5565b92915050565b600060208284031215611be757611be661182b565b5b6000611bf584828501611bbc565b91505092915050565b611c0781611b93565b82525050565b6000602082019050611c226000830184611bfe565b92915050565b60008115159050919050565b611c3d81611c28565b82525050565b6000602082019050611c586000830184611c34565b92915050565b60008060408385031215611c7557611c7461182b565b5b6000611c8385828601611bbc565b9250506020611c9485828601611856565b9150509250929050565b7f4e487b7100000000000000000000000000000000000000000000000000000000600052602260045260246000fd5b60006002820490506001821680611ce557607f821691505b602082108103611cf857611cf7611c9e565b5b50919050565b7f456e642074696d652073686f756c6420626520696e2066757475726521000000600082015250565b6000611d34601d836118a3565b9150611d3f82611cfe565b602082019050919050565b60006020820190508181036000830152611d6381611d27565b9050919050565b60008190508160005260206000209050919050565b60006020601f8301049050919050565b600082821b905092915050565b600060088302611dcc7fffffffffffffffffffffffffffffffffffffffffffffffffffffffffffffffff82611d8f565b611dd68683611d8f565b95508019841693508086168417925050509392505050565b6000819050919050565b6000611e13611e0e611e0984611835565b611dee565b611835565b9050919050565b6000819050919050565b611e2d83611df8565b611e41611e3982611e1a565b848454611d9c565b825550505050565b600090565b611e56611e49565b611e61818484611e24565b505050565b5b81811015611e8557611e7a600082611e4e565b600181019050611e67565b5050565b601f821115611eca57611e9b81611d6a565b611ea484611d7f565b81016020851015611eb3578190505b611ec7611ebf85611d7f565b830182611e66565b50505b505050565b600082821c905092915050565b6000611eed60001984600802611ecf565b1980831691505092915050565b6000611f068383611edc565b9150826002028217905092915050565b611f1f82611898565b67ffffffffffffffff811115611f3857611f376119bd565b5b611f428254611ccd565b611f4d828285611e89565b600060209050601f831160018114611f805760008415611f6e578287015190505b611f788582611efa565b865550611fe0565b601f198416611f8e86611d6a565b60005b82811015611fb657848901518255600182019150602085019450602081019050611f91565b86831015611fd35784890151611fcf601f891682611edc565b8355505b6001600288020188555050505b505050505050565b7f4e487b7100000000000000000000000000000000000000000000000000000000600052601160045260246000fd5b600061202282611835565b91507fffffffffffffffffffffffffffffffffffffffffffffffffffffffffffffffff820361205457612053611fe8565b5b600182019050919050565b6000606082019050818103600083015261207981866118ef565b9050818103602083015261208d81856118ef565b905061209c6040830184611928565b949350505050565b7f496e76616c69642070726f706f73616c20494421000000000000000000000000600082015250565b60006120da6014836118a3565b91506120e5826120a4565b602082019050919050565b60006020820190508181036000830152612109816120cd565b9050919050565b7f50726f706f73616c20766f74696e672068617320656e64656421000000000000600082015250565b6000612146601a836118a3565b915061215182612110565b602082019050919050565b6000602082019050818103600083015261217581612139565b9050919050565b7f596f75206861766520616c726561647920766f746564206f6e2074686520707260008201527f6f706f73616c2100000000000000000000000000000000000000000000000000602082015250565b60006121d86027836118a3565b91506121e38261217c565b604082019050919050565b60006020820190508181036000830152612207816121cb565b9050919050565b7f596f75206e656564203e3d312045544820696e20796f75722077616c6c65742060008201527f746f20766f746521000000000000000000000000000000000000000000000000602082015250565b600061226a6028836118a3565b91506122758261220e565b604082019050919050565b600060208201905081810360008301526122998161225d565b9050919050565b60006040820190506122b56000830185611bfe565b6122c26020830184611928565b9392505050565b7f50726f706f73616c20766f74696e67206973206f6e676f696e67210000000000600082015250565b60006122ff601b836118a3565b915061230a826122c9565b602082019050919050565b6000602082019050818103600083015261232e816122f2565b9050919050565b7f596f7520617265206e6f742064656c65676174656420627920616e792075736560008201527f7221000000000000000000000000000000000000000000000000000000000000602082015250565b60006123916022836118a3565b915061239c82612335565b604082019050919050565b600060208201905081810360008301526123c081612384565b9050919050565b7f5468652064656c656761746f722068617320616c726561647920766f7465642060008201527f6f6e207468652070726f706f73616c2100000000000000000000000000000000602082015250565b60006124236030836118a3565b915061242e826123c7565b604082019050919050565b6000602082019050818103600083015261245281612416565b9050919050565b600060608201905061246e6000830186611bfe565b61247b6020830185611bfe565b6124886040830184611928565b949350505050565b7f5468652064656c65676174656520697320616c72656164792064656c6567617460008201527f656420627920736f6d6520757365722100000000000000000000000000000000602082015250565b60006124ec6030836118a3565b91506124f782612490565b604082019050919050565b6000602082019050818103600083015261251b816124df565b9050919050565b7f596f752063616e6e6f742064656c656761746520796f757273656c6621000000600082015250565b6000612558601d836118a3565b915061256382612522565b602082019050919050565b600060208201905081810360008301526125878161254b565b9050919050565b7f496e76616c69642064656c656761746565206164647265737321000000000000600082015250565b60006125c4601a836118a3565b91506125cf8261258e565b602082019050919050565b600060208201905081810360008301526125f3816125b7565b9050919050565b600060408201905061260f6000830185611bfe565b61261c6020830184611bfe565b9392505050565b7f4e487b7100000000000000000000000000000000000000000000000000000000600052601260045260246000fd5b600061265d82611835565b915061266883611835565b92508261267857612677612623565b5b828204905092915050565b600061268e82611835565b915061269983611835565b92508282019050808211156126b1576126b0611fe8565b5b9291505056fea264697066735822122038757088e301eded40ab9a0d5de1690eb8fc10c8102dca9399b8dadcce55ff8f64736f6c63430008130033",
  "immutableReferences": {},
  "source": "// SPDX-License-Identifier: MIT\npragma solidity ^0.8.19;\n\nimport \"@openzeppelin/contracts/utils/math/SafeMath.sol\";\n\ncontract VotingMaster {\n    using SafeMath for uint256;\n\n    struct Proposal {\n        string name;\n        string description;\n        uint256 noOfUpVotes;\n        uint256 noOfDownVotes;\n        uint256 endTime;\n    }\n\n    mapping(address => mapping(uint256 => bool)) public hasVoted;\n    mapping(uint256 => Proposal) public proposals;\n    uint256 public proposalsCount;\n\n    mapping(address => address) public delegatees;\n    mapping(address => address) public delegators;\n\n    event VoteDelegated(address delegator, address delegatee);\n    event UpVoted(uint256 indexed proposalId, address voter, uint256 voteWeight);\n    event DownVoted(uint256 indexed proposalId, address voter, uint256 voteWeight);\n    event ProposalCreated(uint256 indexed proposalId, string name, string description, uint256 endTime);\n    event UpVotedByDelegate(uint256 indexed proposalId, address delegator, address delegatee, uint256 voteWeight);\n    event DownVotedByDelegate(uint256 indexed proposalId, address delegator, address delegatee, uint256 voteWeight);\n\n    /**\n    * @dev Creates a new proposal\n    *\n    * Emits an {ProposalCreated} event indicating the proposal ID, name, description and end time.\n    *\n    * Requirements:\n    * - `_endTime` should be in future\n    *\n     */\n    function createProposal(string memory _name, string memory _description, uint256 _endTime) public returns (uint256 _proposalId){\n        require(_endTime > block.timestamp, \"End time should be in future!\");\n\n        _proposalId = proposalsCount;\n\n        proposals[proposalsCount].name = _name;\n        proposals[proposalsCount].description = _description;\n        proposals[proposalsCount].endTime = _endTime;\n        proposals[proposalsCount].noOfUpVotes = 0; //default to 0 upVotes\n        proposals[proposalsCount].noOfDownVotes = 0; //default to 0 downVotes\n\n        proposalsCount++;\n\n        emit ProposalCreated(_proposalId, _name, _description, _endTime);\n    }\n\n    /**\n    * @dev Upvotes a proposal\n    *\n    * Emits an {UpVoted} event indicating the proposal ID, voter and vote weight.\n    *\n    * Requirements:\n    * - `_proposalId` should be valid\n    * - Proposal voting should not have ended\n    * - Voter should not have already voted on the proposal\n    * - Voter should have >=1 ETH in their wallet\n    *\n        */\n    function upVote(uint256 _proposalId) public returns (bool _isSuccess){\n        require(_proposalId <= proposalsCount, \"Invalid proposal ID!\");\n\n        Proposal storage proposal = proposals[_proposalId];\n        require(proposal.endTime > block.timestamp, \"Proposal voting has ended!\");\n\n        require(!hasVoted[msg.sender][_proposalId], \"You have already voted on the proposal!\");\n\n        uint256 voteWeight = msg.sender.balance.div(1 ether);\n        require(voteWeight > 0, \"You need >=1 ETH in your wallet to vote!\");\n\n        proposal.noOfUpVotes = proposal.noOfUpVotes.add(voteWeight);\n        hasVoted[msg.sender][_proposalId] = true;\n\n        emit UpVoted(_proposalId, msg.sender, voteWeight);\n        return true;\n    }\n\n    /**\n    * @dev Downvotes a proposal\n    *\n    * Emits an {DownVoted} event indicating the proposal ID, voter and vote weight.\n    *\n    * Requirements:\n    * - `_proposalId` should be valid\n    * - Proposal voting should not have ended\n    * - Voter should not have already voted on the proposal\n    * - Voter should have >=1 ETH in their wallet\n    *\n    */\n    function downVote(uint256 _proposalId) public returns (bool _isSuccess){\n        require(_proposalId <= proposalsCount, \"Invalid proposal ID!\");\n\n        Proposal storage proposal = proposals[_proposalId];\n        require(proposal.endTime > block.timestamp, \"Proposal voting has ended!\");\n\n        require(!hasVoted[msg.sender][_proposalId], \"You have already voted on the proposal!\");\n\n        uint256 voteWeight = msg.sender.balance.div(1 ether);\n        require(voteWeight > 0, \"You need >=1 ETH in your wallet to vote!\");\n\n        proposal.noOfDownVotes = proposal.noOfDownVotes.add(voteWeight);\n        hasVoted[msg.sender][_proposalId] = true;\n\n        emit DownVoted(_proposalId, msg.sender, voteWeight);\n        return true;\n    }\n\n    /**\n    * @dev Upvotes a proposal by a delegate\n    *\n    * Emits an {UpVotedByDelegate} event indicating the proposal ID, delegator, delegatee and vote weight.\n    *\n    * NOTE: The delegator should have delegated msg.sender before calling this function. Also,\n    * the delegator should not have already voted on the proposal, neither should the msg.sender.\n    *\n    * Requirements:\n    * - `_proposalId` should be valid\n    * - Proposal voting should not have ended\n    * - Delegator should not have already voted on the proposal\n    * - Delegatee(msg.sender) should not have voted on the proposal\n    * - Delegatee(msg.sender) be delegated by some user\n    * - Delegatee(msg.sender) should have >=1 ETH in their wallet\n    *\n    */\n    function upVoteByDelegate(uint256 _proposalId) public returns (bool _isSuccess) {\n        require(_proposalId <= proposalsCount, \"Invalid proposal ID!\");\n        require(delegators[msg.sender] != address(0), \"You are not delegated by any user!\");\n\n        Proposal storage proposal = proposals[_proposalId];\n        require(proposal.endTime > block.timestamp, \"Proposal voting has ended!\");\n\n        address delegator = delegators[msg.sender];\n        require(!hasVoted[msg.sender][_proposalId], \"You have already voted on the proposal!\");\n        require(!hasVoted[delegator][_proposalId], \"The delegator has already voted on the proposal!\");\n\n        uint256 voteWeight = msg.sender.balance.div(1 ether);\n        require(voteWeight > 0, \"You need >=1 ETH in your wallet to vote!\");\n\n        proposal.noOfUpVotes = proposal.noOfUpVotes.add(voteWeight);\n        hasVoted[delegator][_proposalId] = true;\n\n        emit UpVotedByDelegate(_proposalId, delegator, msg.sender, voteWeight);\n        return true;\n    }\n\n    /**\n   * @dev Downvotes a proposal by a delegate\n    *\n    * Emits an {DownVotedByDelegate} event indicating the proposal ID, delegator, delegatee and vote weight.\n    *\n    * NOTE: The delegator should have delegated msg.sender before calling this function. Also,\n    * the delegator should not have already voted on the proposal, neither should the msg.sender.\n    *\n    * Requirements:\n    * - `_proposalId` should be valid\n    * - Proposal voting should not have ended\n    * - Delegator should not have already voted on the proposal\n    * - Delegatee(msg.sender) should not have voted on the proposal\n    * - Delegatee(msg.sender) be delegated by some user\n    * - Delegatee(msg.sender) should have >=1 ETH in their wallet\n    *\n    */\n    function downVoteByDelegate(uint256 _proposalId) public returns (bool _isSuccess) {\n        require(_proposalId <= proposalsCount, \"Invalid proposal ID!\");\n        require(delegators[msg.sender] != address(0), \"You are not delegated by any user!\");\n\n        Proposal storage proposal = proposals[_proposalId];\n        require(proposal.endTime > block.timestamp, \"Proposal voting has ended!\");\n\n        address delegator = delegators[msg.sender];\n        require(!hasVoted[msg.sender][_proposalId], \"You have already voted on the proposal!\");\n        require(!hasVoted[delegator][_proposalId], \"The delegator has already voted on the proposal!\");\n\n        uint256 voteWeight = msg.sender.balance.div(1 ether);\n        require(voteWeight > 0 ether, \"You need >=1 ETH in your wallet to vote!\");\n\n        proposal.noOfDownVotes = proposal.noOfDownVotes.add(voteWeight);\n        hasVoted[delegator][_proposalId] = true;\n\n        emit DownVotedByDelegate(_proposalId, delegator, msg.sender, voteWeight);\n        return true;\n    }\n\n    /**\n    * @dev Delegates voting power to another user\n    *\n    * Emits an {VoteDelegated} event indicating the delegator and delegatee.\n    *\n    * Requirements:\n    * - `_delegatee` should not have been delegated by any other user\n    * - `_delegatee` should not be the delegator\n    * - `_delegatee` should be a valid address\n    *\n    */\n    function delegateVote(address _delegatee) public returns (bool _isSuccess){\n        require(delegators[_delegatee] == address(0), \"The delegatee is already delegated by some user!\");\n        require(msg.sender != _delegatee, \"You cannot delegate yourself!\");\n        require(_delegatee != address(0), \"Invalid delegatee address!\");\n\n        delegatees[msg.sender] = _delegatee;\n        delegators[_delegatee] = msg.sender;\n\n        emit VoteDelegated(msg.sender, _delegatee);\n        return true;\n    }\n\n    /**\n    *\n    * @dev Views the results of a proposal\n    *\n    * Requirements:\n    * - `_proposalId` should be valid\n    * - Proposal voting should have ended\n    *\n    */\n    function viewResults(uint256 _proposalId) public payable returns (bool _isPassed){\n        require(_proposalId <= proposalsCount, \"Invalid proposal ID!\");\n\n        Proposal storage proposal = proposals[_proposalId];\n        require(proposal.endTime < block.timestamp, \"Proposal voting is ongoing!\");\n\n        return (proposal.noOfUpVotes >= proposal.noOfDownVotes);\n    }\n}",
  "sourcePath": "/Users/apple/Desktop/voting/solidity/contracts/VotingMaster.sol",
  "compiler": {
    "name": "solc",
    "version": "0.8.19+commit.7dd6d404.Emscripten.clang"
  },
  "schemaVersion": "3.4.16",
  "updatedAt": "2024-08-19T18:05:52.459Z",
  "devdoc": {
    "kind": "dev",
    "methods": {
      "createProposal(string,string,uint256)": {
        "details": "Creates a new proposal Emits an {ProposalCreated} event indicating the proposal ID, name, description and end time. Requirements: - `_endTime` should be in future"
      },
      "delegateVote(address)": {
        "details": "Delegates voting power to another user Emits an {VoteDelegated} event indicating the delegator and delegatee. Requirements: - `_delegatee` should not have been delegated by any other user - `_delegatee` should not be the delegator - `_delegatee` should be a valid address"
      },
      "downVote(uint256)": {
        "details": "Downvotes a proposal Emits an {DownVoted} event indicating the proposal ID, voter and vote weight. Requirements: - `_proposalId` should be valid - Proposal voting should not have ended - Voter should not have already voted on the proposal - Voter should have >=1 ETH in their wallet"
      },
      "downVoteByDelegate(uint256)": {
        "details": "Downvotes a proposal by a delegate Emits an {DownVotedByDelegate} event indicating the proposal ID, delegator, delegatee and vote weight. NOTE: The delegator should have delegated msg.sender before calling this function. Also, the delegator should not have already voted on the proposal, neither should the msg.sender. Requirements: - `_proposalId` should be valid - Proposal voting should not have ended - Delegator should not have already voted on the proposal - Delegatee(msg.sender) should not have voted on the proposal - Delegatee(msg.sender) be delegated by some user - Delegatee(msg.sender) should have >=1 ETH in their wallet"
      },
      "upVote(uint256)": {
        "details": "Upvotes a proposal Emits an {UpVoted} event indicating the proposal ID, voter and vote weight. Requirements: - `_proposalId` should be valid - Proposal voting should not have ended - Voter should not have already voted on the proposal - Voter should have >=1 ETH in their wallet"
      },
      "upVoteByDelegate(uint256)": {
        "details": "Upvotes a proposal by a delegate Emits an {UpVotedByDelegate} event indicating the proposal ID, delegator, delegatee and vote weight. NOTE: The delegator should have delegated msg.sender before calling this function. Also, the delegator should not have already voted on the proposal, neither should the msg.sender. Requirements: - `_proposalId` should be valid - Proposal voting should not have ended - Delegator should not have already voted on the proposal - Delegatee(msg.sender) should not have voted on the proposal - Delegatee(msg.sender) be delegated by some user - Delegatee(msg.sender) should have >=1 ETH in their wallet"
      },
      "viewResults(uint256)": {
        "details": "Views the results of a proposal Requirements: - `_proposalId` should be valid - Proposal voting should have ended"
      }
    },
    "version": 1
  },
  "userdoc": {
    "kind": "user",
    "methods": {},
    "version": 1
  }
}